{"contracts/ChainProof.sol":{"ChainProof":{"abi":[{"anonymous":false,"inputs":[{"indexed":true,"internalType":"bytes32","name":"hash","type":"bytes32"},{"indexed":true,"internalType":"address","name":"sender","type":"address"},{"indexed":false,"internalType":"uint256","name":"timestamp","type":"uint256"}],"name":"HashAnchored","type":"event"},{"inputs":[{"internalType":"bytes32","name":"hash","type":"bytes32"}],"name":"anchor","outputs":[],"stateMutability":"nonpayable","type":"function"}],"evm":{"bytecode":{"linkReferences":{},"object":"608060405234801561001057600080fd5b50610170806100206000396000f3fe608060405234801561001057600080fd5b506004361061002b5760003560e01c8063eecdf92714610030575b600080fd5b61004a600480360381019061004591906100d9565b61004c565b005b3373ffffffffffffffffffffffffffffffffffffffff16817fa5cbeb7570a6c7c834762f7c213557e60c453fd24203dd5f7d85864ff2738c3942604051610093919061011f565b60405180910390a350565b600080fd5b6000819050919050565b6100b6816100a3565b81146100c157600080fd5b50565b6000813590506100d3816100ad565b92915050565b6000602082840312156100ef576100ee61009e565b5b60006100fd848285016100c4565b91505092915050565b6000819050919050565b61011981610106565b82525050565b60006020820190506101346000830184610110565b9291505056fea2646970667358221220c4ae392c33ad66d51279ec1659b1c1a80dd380f6ef8b0d3d5fa1380e7bf9799464736f6c63430008140033","opcodes":"PUSH1 0x80 PUSH1 0x40 MSTORE CALLVALUE DUP1 ISZERO PUSH2 0x10 JUMPI PUSH1 0x0 DUP1 REVERT JUMPDEST POP PUSH2 0x170 DUP1 PUSH2 0x20 PUSH1 0x0 CODECOPY PUSH1 0x0 RETURN INVALID PUSH1 0x80 PUSH1 0x40 MSTORE CALLVALUE DUP1 ISZERO PUSH2 0x10 JUMPI PUSH1 0x0 DUP1 REVERT JUMPDEST POP PUSH1 0x4 CALLDATASIZE LT PUSH2 0x2B JUMPI PUSH1 0x0 CALLDATALOAD PUSH1 0xE0 SHR DUP1 PUSH4 0xEECDF927 EQ PUSH2 0x30 JUMPI JUMPDEST PUSH1 0x0 DUP1 REVERT JUMPDEST PUSH2 0x4A PUSH1 0x4 DUP1 CALLDATASIZE SUB DUP2 ADD SWAP1 PUSH2 0x45 SWAP2 SWAP1 PUSH2 0xD9 JUMP JUMPDEST PUSH2 0x4C JUMP JUMPDEST STOP JUMPDEST CALLER PUSH20 0xFFFFFFFFFFFFFFFFFFFFFFFFFFFFFFFFFFFFFFFF AND DUP2 PUSH32 0xA5CBEB7570A6C7C834762F7C213557E60C453FD24203DD5F7D85864FF2738C39 TIMESTAMP PUSH1 0x40 MLOAD PUSH2 0x93 SWAP2 SWAP1 PUSH2 0x11F JUMP JUMPDEST PUSH1 0x40 MLOAD DUP1 SWAP2 SUB SWAP1 LOG3 POP JUMP JUMPDEST PUSH1 0x0 DUP1 REVERT JUMPDEST PUSH1 0x0 DUP2 SWAP1 POP SWAP2 SWAP1 POP JUMP JUMPDEST PUSH2 0xB6 DUP2 PUSH2 0xA3 JUMP JUMPDEST DUP2 EQ PUSH2 0xC1 JUMPI PUSH1 0x0 DUP1 REVERT JUMPDEST POP JUMP JUMPDEST PUSH1 0x0 DUP2 CALLDATALOAD SWAP1 POP PUSH2 0xD3 DUP2 PUSH2 0xAD JUMP JUMPDEST SWAP3 SWAP2 POP POP JUMP JUMPDEST PUSH1 0x0 PUSH1 0x20 DUP3 DUP5 SUB SLT ISZERO PUSH2 0xEF JUMPI PUSH2 0xEE PUSH2 0x9E JUMP JUMPDEST JUMPDEST PUSH1 0x0 PUSH2 0xFD DUP5 DUP3 DUP6 ADD PUSH2 0xC4 JUMP JUMPDEST SWAP2 POP POP SWAP3 SWAP2 POP POP JUMP JUMPDEST PUSH1 0x0 DUP2 SWAP1 POP SWAP2 SWAP1 POP JUMP JUMPDEST PUSH2 0x119 DUP2 PUSH2 0x106 JUMP JUMPDEST DUP3 MSTORE POP POP JUMP JUMPDEST PUSH1 0x0 PUSH1 0x20 DUP3 ADD SWAP1 POP PUSH2 0x134 PUSH1 0x0 DUP4 ADD DUP5 PUSH2 0x110 JUMP JUMPDEST SWAP3 SWAP2 POP POP JUMP INVALID LOG2 PUSH5 0x6970667358 0x22 SLT KECCAK256 0xC4 0xAE CODECOPY 0x2C CALLER 0xAD PUSH7 0xD51279EC1659B1 0xC1 0xA8 0xD 0xD3 DUP1 0xF6 0xEF DUP12 0xD RETURNDATASIZE PUSH0 LOG1 CODESIZE 0xE PUSH28 0xF9799464736F6C634300081400330000000000000000000000000000 "},"methodIdentifiers":{"anchor(bytes32)":"eecdf927"}}}}}